:100000000C9486060C94BE060C94BE060C942B2C05
:100010000C94BE060C94BE060C94BE060C94BE0650
:100020000C94BE060C94BE060C945A140C947118D1
:100030000C941A260C94BE060C94BE060C94BE06B4
:100040000C94BE060C94BE060C94BE060C94BE0620
:100050000C94BE060C9433150C94BE060C94BE068C
:100060000C94BE060C94BE060C94BE060C94BE0600
:100070000C94BE060C94BE060C94BE060C94BE06F0
:100080000C94BE060C94BE060C94BE060C94BE06E0
:100090000C94BE060C94BE060C94BE060C94BE06D0
:1000A0000C94BE060C94BE060C94BE062B001400E5
:1000B0001A00080015001700E100040016000700F0
:1000C00009000A00E0001D001B00060019000500E1
:1000D000000000000000E3002C0021522A00130061
:1000E00012000C0018001C00340033000F000E003A
:1000F0000D000B00290038003700360010001100F9
:10010000000000000000E200225228002B001E0028
:100110001F00200021002200E0003A003B003C00CC
:100120003D003E00E1003F0040004100420043002E
:10013000000000000000E30001002C002A0027005E
:100140002600250024002300450044004F005200F3
:1001500051005000000000000000000000000000FE
:10016000000000000000E600235228002B001E02C1
:100170001F02200221022202E00000000000000015
:1001800000000000E100000000000000000000008E
:10019000000000000000E30023522C002A00270288
:1001A00026022502240223023500310030002F00F0
:1001B0002E002D003502310230022F022E022D02B8
:1001C000000000000000E60001002800007C0000A4
:1001D00000000000000000002078237825782778B0
:1001E000000000002178247826782878000000009C
:1001F000000000000000E30001002C0000000000EF
:1002000000000000000000000000000000000000EE
:1002100000000000000000000000000000000000DE
:10022000000000000000E6000100280000DA028162
:10023000FFD9F1DB20A4A62EAF00A0C0D30000A1FF
:10024000C8D30000AED580A81F408D142000000147
:100250000101010101010101020202020202020286
:100260000203030303030303030404040404040458
:10027000050505050506060606060707070707081C
:10028000080808090909090A0A0A0B0B0B0C0C0CCF
:100290000D0D0D0E0E0E0F0F0F1010111111121269
:1002A00013131414151516161717181819191A1AE6
:1002B0001B1B1C1D1D1E1E1F202021222223242447
:1002C000252626272829292A2B2C2D2D2E2F303183
:1002D0003232333435363738393A3B3C3D3E3F4095
:1002E0004142434445464748494A4C4D4E4F505180
:1002F0005354555658595A5B5D5E5F61626465663A
:1003000068696B6C6D6F7072737577787A7B7D7EC0
:100310008082838587888A8C8E8F91939596989A10
:100320009C9EA0A2A3A5A7A9ABADAFB1B3B5B7BA28
:10033000BCBEC0C2C4C6C9CBCDCFD1D4D6D8DBDDFC
:10034000DFE2E4E7E9EBEEF0F3F5F8FAFDFF00AFEA
:1003500000AE000000E000F8C0F8E0C0FC007E182D
:100360000080000280F000C080F8C0E070603C387F
:100370003C1C003F0C0F1F030701C300E08000E09E
:1003800080F880C0F7C76F7B3930008000C000C0A4
:10039000C2E000403830381E181E0F0C0707070354
:1003A000032121313018181C080C0E07060703C35F
:1003B00003014CCCC2C24149092B2A6A6E24240491
:1003C0009292B1F1F1F2E6A4A40404282828282886
:1003D0002828636F726E6500209495962020B4B52E
:1003E000B62020D4D5D62000209D9E9F2020BDBEC3
:1003F000BF2020DDDEDF2000209798992020B7B8AD
:10040000B92020D7D8D92000209A9B9C2020BABBA5
:10041000BC2020DADBDC2000202020202000A7A840
:1004200000AFB000C600CA00C800A5A600ADAE006F
:100430008788008F9000C500C900C700CB00858663
:10044000008D8E00ABAC00CFD000C600CA00C80043
:10045000A9AA00B1B2008B8C00CDCE00C500C900A6
:10046000C700CB00898A0091920020200053200011
:100470002020004320002020004E2000000000101B
:1004800000000000000000081C0800000000000040
:10049000000002000000000010000000000000004A
:1004A000200000000000000000020040E0400000CA
:1004B00000000000040000000080C080C080000038
:1004C00000000000E0008000F00000C0000000001C
:1004D0000000004000000000000001008100C0009A
:1004E000FE00FC00FF20FFF00FF000FF0000000006
:1004F0001000000000009000F80000F8FF10FF84DA
:10050000FF60FF36FF0FFF3F005F000580008000A7
:10051000C03800ECF000FB80FFF0FFEFFFE8FF03C6
:10052000FF0CFF00FF00030000F80080FF20FFD059
:10053000FFE0FEF8FFFCFFFF0FFF013FFF000F0091
:1005400001000300FE80FE00C0FFC4FBFFFEFFFFB2
:10055000FF3FFFFF07FF033F000FC0000000B80090
:10056000FF40BEF0FFF1FFFEFFFFFFFF1FFF670030
:10057000EF001F0000070000E000FFF0FF88FFC44D
:10058000FFF8FFFFFFFFFFFF8F7F0FFF0007FE0059
:100590000700000000F800C03FF8E7FFFFFFFF1F63
:1005A000FFFF1F3F01FF0B00FF000005000000E000
:1005B00000F86080FEE3FCFF1EFFFF23FF09FF2021
:1005C000003F0200000F004000C000FCE0FCF0FF14
:1005D000FF7FFCFF0FFF071F00010F000F0081705E
:1005E0000CF0800000E4F8E6703FCFFF1FFF48FFEB
:1005F0000F000700004360F8F0FE38FE00FC030027
:10060000C872CFFC00030F01E01CE003000F0000E4
:100610000000000000F806F900030007FF001012B8
:10062000C9F0CFB47F80E01E0140655EE00000F0BD
:100630000CF000807E018093FCC0000000000000F0
:1006400089182C46000721101080091331BFFF00C4
:10065000081AF70F0000444534BFB80010F008F442
:100660001811FC18FB0E10F804F810201809FF0CE4
:10067000EA1F286030F820C042332100050109023A
:10068000A10185020901A100050919012908150028
:10069000250195087501810205010930093115818F
:1006A000257F95027508810609381581257F9501FA
:1006B00075088106050C0A38021581257F9501759C
:1006C000088106C0C005010980A101850319012A1E
:1006D000B700150126B700950175108100C0050C03
:1006E0000901A101850419012AA002150126A00211
:1006F000950175108100C005010906A101050719C2
:10070000E029E7150025019508750181029501751D
:100710000881010507190029FF150026FF0095062D
:1007200075088100050819012905150025019505A1
:1007300075019102950175039101C009023B000208
:100740000100A0FA090400000103010100092111C0
:10075000010001224400070581030800010904018A
:10076000000103000000092111010001227B0007A4
:1007700005820320000112010002000000081D8D07
:100780003A340001010200012403410075007200A7
:100790006F0072006100200043006F0072006E0065
:1007A000650020007200650076003100000018032B
:1007B000730070006C00690074006B0062002E0012
:1007C00063006F006D0000000403090400000000D6
:1007D00000003E5B4F5B3E003E6B4F6B3E001C3E9D
:1007E0007C3E1C00183C7E3C18001C577D571C00AA
:1007F0001C5E7F5E1C0000183C180000FFE7C3E78A
:10080000FF00001824180000FFE7DBE7FF00304876
:100810003A060E00262979292600407F05050700A3
:10082000407F05253F005A3CE73C5A007F3E1C1C98
:100830000800081C1C3E7F0014227F2214005F5F0A
:10084000005F5F0006097F017F00006689956A00EE
:1008500060606060600094A2FFA2940008047E04BF
:10086000080010207E20100008082A1C0800081C20
:100870002A0808001E10101010000C1E0C1E0C0080
:1008800030383E383000060E3E0E060000000000F4
:10089000000000005F000000000700070000147F58
:1008A000147F1400242A7F2A120023130864620094
:1008B000364956205000000807030000001C224162
:1008C00000000041221C00002A1C7F1C2A0008088E
:1008D0003E08080000807030000008080808080082
:1008E0000000606000002010080402003E514945ED
:1008F0003E0000427F4000007249494946002141C4
:10090000494D33001814127F100027454545390022
:100910003C4A4949310041211109070036494949FA
:100920003600464949291E0000001400000000401E
:1009300034000000000814224100141414141400A0
:100940000041221408000201590906003E415D5988
:100950004E007C1211127C007F49494936003E410D
:10096000414122007F4141413E007F4949494100C8
:100970007F09090901003E41415173007F080808C1
:100980007F0000417F4100002040413F01007F087F
:10099000142241007F40404040007F021C027F0043
:1009A0007F0408107F003E4141413E007F09090954
:1009B00006003E4151215E007F0919294600264963
:1009C0004949320003017F0103003F4040403F009E
:1009D0001F2040201F003F4038403F006314081490
:1009E00063000304780403006159494D4300007F0C
:1009F00041414100020408102000004141417F00B4
:100A00000402010204004040404040000003070887
:100A100000002054547840007F2844443800384473
:100A200044442800384444287F0038545454180063
:100A300000087E0902001824241C78007F080404A2
:100A4000780000447D4000002040403D00007F10C1
:100A50002844000000417F4000007C0478047800B6
:100A60007C08040478003844444438007C1824246A
:100A70001800182424187C007C080404080048543A
:100A80005454240004043F4424003C4040207C0093
:100A90001C2040201C003C4030403C0044281028D2
:100AA00044004C9090907C004464544C44000008F6
:100AB00036410000000077000000004136080000C9
:100AC0000201020402003C2623263C000000000034
:100AD00000000000C0E0F0F8F81800C0F0FCFEFFD5
:100AE000FFFFFFFFFFFF7E00000000F8042252E23C
:100AF000424242E252222222428202022222020484
:100B0000F80000F8040202824222428202020282BB
:100B10004222122242820204F80000F8FCDEAE1EDD
:100B2000BEBEBE1EAEDEDEDEBE7EFEFEDEDEFEFC37
:100B3000F80000F8FCFEFE7EBEDEBE7EFEFE00007B
:100B40000000000080804040202010100808101095
:100B50002020404080808080C0C0E0E0F0F0F8F8C5
:100B6000F0F0E0E0C0C08080808040402020101085
:100B700008081010202040408080808040C060A085
:100B800050B058A850B060A040C0808000F8FCFE73
:100B9000FFE000FFFFFFFFFFFF80FFFFFFFFFFFF02
:100BA000FFFFFF1F070100000000001F20444A470D
:100BB000424242474A44404040404142444440202F
:100BC0001F00001F20404140404040404140414103
:100BD0004F4848484F4141201F00001F3F7B757818
:100BE0007D7D7D78757B7F7F7F7F7E7D7B7B7F3F7B
:100BF0001F00001F3F7F7E7F7F7F7F7F7E7F000003
:100C00000000000088885D5D3E3E7C7CF8F87C7CBE
:100C10003E3E5D5D888888885555232347478F8FE2
:100C200047472323555588888888D5D5E2E2C4C430
:100C30008888C4C4E2E2D5D5888888885DD56BB63B
:100C40006DD6ADDA6DD66BB65DD5888800030F1F03
:100C50003F3F3F3F1F1F3F3F7F7F7F3F3F1F3F7F04
:100C60007F7F7F7C7878381C0F0004F80000F80440
:100C7000201F00001F20FCF80000F8043F1F0000A8
:100C80001F2004F80000F8FC201F00001F3FFCF8A4
:100C90000000F8FC3F1F00001F3FFE7EBEDEEEDEC0
:100CA000BE7EFEFCF8007E7E70777777707E7E3F9A
:100CB0001F00000000000000000000000000000015
:100CC00000000000000001010202040408080404FE
:100CD00002020101000000000101020204040808F0
:100CE00004040202010100000000010103030707E0
:100CF0000F0F0707030301010000000001010302B9
:100D000005060D0A050603020101000011241FBE9D
:100D1000CFEFDAE0DEBFCDBF04B603FE18C080918E
:100D2000940690919506A0919606B091970687300B
:100D3000904BA740B04B59F4109294061092950630
:100D40001092960610929706E0E0F8E3099512E0FB
:100D5000A0E0B1E0EEEFFCE502C005900D92A439F1
:100D6000B107D9F726E0A4E9B2E001C01D92A43989
:100D7000B207E1F70E9441260C94292E0C94000042
:100D800080918104837051F084608093810410927B
:100D90006401809180048160809380040895482FCD
:100DA00020917C049091430457E0291302C080E015
:100DB000089530E0529FF001539FF00D1124EC5B39
:100DC000FB4F8181681306C08081481303C0858171
:100DD0008111EECF2F5F3F4F2770E7CF90918104B5
:100DE000937071F08093820460938304413808F01B
:100DF00040E8409384048091800481608093800463
:100E00000895E8EDF0E080818E7F80831092E2000B
:100E10001092DA001092E100A0EEB0E08C918160B7
:100E20008C9380818F77808319BCA7EDB0E08C9183
:100E30008E7F8C9380818F7E808310922C04089506
:100E40002091E4003091E50095E6A9012091EC00A5
:100E5000822F817020FF06C08091E80080FF06C0CD
:100E600080E008952091E80022FD1AC080913904A5
:100E7000882389F0853089F08091EB0085FD0FC0D3
:100E80002091E4003091E50042175307F9F29150A8
:100E9000E1F684E0089582E0089583E0089581E01A
:100EA000089580913B0487FF13C08091E80082FF82
:100EB00006C08091E8008B778093E80004C08091A1
:100EC00039048111F2CF0895809139048823D9F330
:100ED0008091E80080FFF8CF8091E8008E77ECCF1A
:100EE000982F9093E900242F762F50E0891731F046
:100EF0007091EC002091ED005091F00021FD07C0B1
:100F00009F5F973071F78093E90081E008953091F9
:100F1000EB003E7F3093EB003091ED003D7F30934E
:100F2000ED003091EB0031603093EB007093EC00FA
:100F30002093ED005093F0002091EE0027FDE0CFCC
:100F400080E00895B0E0A0E0E8EAF7E00C94652DB9
:100F5000C8EDD0E088818F7E8883E7EDF0E0808166
:100F60008160808384E082BF81E080932C0488814B
:100F70008E7F888302EE10E0F80110821092DA0072
:100F800081EEC82ED12CF601108288818F7788835C
:100F900088818068888388818F7D888319BC1092BE
:100FA000390410923A04109238041092370490EEEB
:100FB000E92EF12CF70180818B7F8083888181600D
:100FC000888342E060E080E00E947007F601808143
:100FD0008E7F8083F801808181608083808188603A
:100FE0008083F70180818E7F808388818061888300
:100FF000CDB7DEB7E8E00C94812DFC01809141046F
:101000009091420486179707A0F06115710529F4A5
:101010009091E8009E779093E80090E0611571054B
:1010200051F4911108C08091E80082FF34C080E043
:101030000895BC01F2CF809139048823C1F1853035
:10104000C1F18091E80083FD30C08091E80082FD0D
:10105000EACF8091E80080FFE1CF8091F3002091FA
:10106000F200382F6115710519F02830310558F05C
:1010700091E02830310509F090E02091E8002E77CA
:101080002093E800CBCF81918093F10061507109EA
:101090002F5F3F4FE7CF80913904882341F085309F
:1010A00041F08091E80083FFBECF81E0089582E0A7
:1010B000089583E00895089580912E0408952FB730
:1010C000F894609128047091290480912A049091E9
:1010D0002B042FBF08959C01FC0132969FEF80E006
:1010E0004191461751F09F3F19F4411101C0982FCB
:1010F0008F5F8630A9F79F3F09F40895290F311DAE
:1011000097FD3A95F90162830895A3E0B0E0EBE81A
:10111000F8E00C946B2D20912504309126042817BB
:101120003907A1F09093260480932504E0912304CD
:10113000F0912404309751F024E029839B838A8323
:101140000084F185E02DCE01019609952396E2E019
:101150000C94872DA3E0B0E0E0EBF8E00C946B2D4D
:10116000209121043091220428173907A1F090938F
:10117000220480932104E0912304F0912404309709
:1011800051F023E029839B838A830084F185E02D3D
:10119000CE01019609952396E2E00C94872D80916B
:1011A0001F04882359F0E0912304F0912404309720
:1011B00029F00190F081E02D0995089580E00895CF
:1011C0008091140480FD16C081FD16C082FD16C0FA
:1011D000809113048823A1F0883280F428E0829F54
:1011E000C001112468E270E00E949E2D862F672BBB
:1011F00039F0089582E0089584E0089588E0089524
:1012000081E008958091140480FD14C081FD14C014
:1012100082FD16C080911204882381F08E3180F403
:1012200020E5829FC00111246EE170E00E949E2D96
:10123000862F089584E1089588E2089588E008954E
:1012400080E50895282F35EB2303C001112497FF73
:1012500004C080589109892F089580589F4FFBCF73
:10126000FC01680F791F8FEF91E32191822728E01D
:1012700030E087FF09C0880F892721503109C9F75D
:10128000E617F70791F70895880FF7CFCF93DF930D
:1012900020919206309193062C583440A901460FB4
:1012A000571F4130524020F060E072E0621B730B28
:1012B00040918A0450918B04FC01C901620F731F95
:1012C000C1E0D0E08617970738F050938B04409325
:1012D0008A04DF91CF9108952491DC01A457BB4F7C
:1012E0003C91321781F02C939C01A5E0369527950F
:1012F000AA95E1F7DE0102C0AA0FBB1F2A95E2F70B
:101300009D014A2B532B01963196DCCFFA018111B6
:1013100001C0FB010995089530912004311123C0CB
:101320008B3191051CF14B97FC01EE0FFF1FDF0184
:10133000A80FB91FA05CBC4F11963C9111973613B2
:1013400007C03C91341304C012963C91321771F0DF
:1013500031E030933F03E80FF91FE05CFC4F6183FD
:101360004083228303C08B319105F4F208951092DB
:101370003F030895E1E8F4E0248130E1231B08F401
:1013800020E024838091800481608093800408950C
:10139000E1E8F4E0248130E1230F08F42FEF248307
:1013A000809180048160809380040895E1E8F4E0F6
:1013B000438120E1421B08F440E08181628190E09A
:1013C0000E94EE060895E1E8F4E0438120E1420F37
:1013D00008F44FEF8181628190E00E94EE0608954B
:1013E000E1E8F4E0628120E1621B08F460E08181C1
:1013F000438190E00E94EE060895E1E8F4E0628106
:1014000020E1620F08F46FEF8181438190E00E9438
:10141000EE060895E1E8F4E081814381628188501D
:10142000990B0E94EE060895E1E8F4E0818190E0D6
:101430004381628108960E94EE060895809181049E
:1014400086958695815009F481E00E94C006089532
:1014500081E00E94C00608959BE0899F802D1124A1
:10146000980F973308F096E320912004222321F06F
:101470009C3128F09BE108958B3108F48BE10895AD
:10148000FF920F931F93CF93DF93182F062FF42E05
:10149000D0E0C0E02F2D402F612FCE010E948C099B
:1014A0002196C633D105B1F7CDB7DEB7E5E00C9490
:1014B000842D80E00895F894E82FE295EF70F0E035
:1014C00031A1282F2F7081E090E001C0880F2A956C
:1014D000EAF7982F9095932391A392A1892B82A349
:1014E000789408950F931F9380911F04882329F007
:1014F0000E945F081F910F9108950E945F0800915C
:101500000B0310910C0320910D0330910E03600F1B
:10151000711F821F931FEECF90911B0392FF10C08B
:1015200041E0282F2471243009F040E031E0282FD9
:101530002871283009F030E0431711F02CE08227A1
:1015400093FF10C041E0282F2471243109F040E0BE
:1015500031E0282F2871283109F030E0431711F0CD
:101560002CE0822730911C0330FF10C051E0282F5F
:101570002171213009F050E041E0282F28712830F6
:1015800009F040E0541711F029E0822731FF10C024
:1015900041E0282F2171213109F040E031E0282F6E
:1015A0002871283109F030E0431711F029E0822733
:1015B00094FD877E089582389105B9F1B0F48133A6
:1015C000910509F47DC048F48932910509F46DC094
:1015D0008A32910509F47BC008958533910509F499
:1015E0005FC08933910509F10895833E9105D9F1D2
:1015F00038F4803E910529F1823E910579F10895F4
:10160000863E9105D9F1873E910509F43EC0843E9E
:10161000910541F520911C0321FF24C080911B03FB
:1016200084FD19C087EE90E0089520911B0323707C
:1016300009F05AC020911C0323FF14C089E290E0F6
:10164000089520911B0320FD38C030911C0330FF0A
:1016500009C024FF43C090E080E0089520911B035F
:1016600022FDF7CF089520911B0322FD3AC030914F
:101670001C0330FD39C024FFF5CFEDCF20911B03B3
:1016800023FFF0CF24FDE7CFCDCF20911B0323FD17
:101690002EC030911C0331FFEECF84EE90E0089510
:1016A00020911B0325FFDECFC9CF20911B0325FD11
:1016B00021C020911C0323FFD5CF89E390E0D2CF36
:1016C00020911B0326FFCECF8AE290E0089520915F
:1016D0001B0326FFC7CF81E390E0089583EE90E0DF
:1016E000089582EE90E0089580EE90E0089586EEF1
:1016F00090E0089585E390E00895972F7830B8F44E
:101700006630A8F48430B0F470E026E0929F600D5B
:10171000711D1124FB0190E3899FE00DF11D11243F
:10172000EE0FFF1FE455FF4F85919491089580E0DF
:1017300090E0089581E0FCCF1F93CF93DF930E9448
:10174000DB0AEC01C11580E5D807F0F5C11580E48E
:10175000D80708F09CC0C03ED10520F5CD3CD1058E
:1017600008F082C0C83AD10578F4C53AD10508F02E
:1017700073C0C130D10519F1209709F1C430D105EA
:10178000F0F4D0E0C0E01BC0C33CD105D0F7C85A8C
:10179000D0E0CC0FDD1FCF58DE4F0990D881C02D8F
:1017A000D4640DC0C11580E2D80708F0D1C0C115BE
:1017B00081E0D80708F05AC0C83ED10510F7CE0125
:1017C000DF91CF911F910895C03682E5D80718F5B3
:1017D000C03482E5D80708F06BC0C03282E5D80774
:1017E00008F05FC0C11582E5D80708F497C02C2F18
:1017F0002695269580E2289F900111248C2F8370D6
:10180000C1E0D0E002C0CC0FDD1F8A95E2F7C22B09
:10181000D32BDD68D4CFC03A82E5D80760F4C03856
:1018200082E5D80708F459C0CF71D0E0DC2FCC276F
:10183000C46FD06AC4CFC03C82E5D80708F462C048
:10184000C03E82E5D80708F09CCFDC2FCC27CC2700
:10185000DF71C06FD06AB3CFC55AD0E0C259DE4F36
:10186000C881D0E0D064ABCFD065A9CF8D2F0E94C6
:101870008C0A182FCE0199270E94DB0AC12FD0E0D5
:10188000DC2FCC27CC27DF71C82BD92B98CFCE01EA
:1018900099270E94DB0ACC27DF70C82BD92BD06A8E
:1018A0008ECFCF71D0E0DC2FCC27C16FD06A87CF2D
:1018B0002C2F26952695277080E2289F90011124D1
:1018C0008C2F8370C1E0D0E002C0CC0FDD1F8A9561
:1018D000E2F7C22BD32BDC6872CF2C2F26952695EE
:1018E000277080E2289F900111248C2F8370C1E023
:1018F000D0E002C0CC0FDD1F8A95E2F7C22BD32BBC
:10190000DA685DCF8C2F8F710E948C0AC82FD0E0CF
:10191000DC2FCC27CC27DF71D06251CF8C2F8F7179
:101920000E948C0A55E0D695C7955A95E1F7CF707D
:10193000D0E0DC2FCC27282F30E084FF05C044E026
:10194000220F331F4A95E1F7C22BD32BD06937CF33
:101950008D2F8F710E948C0A182FCE0199270E941B
:10196000DB0AC12FD0E0DC2FCC27CC27DF71C82BBE
:10197000D92BD2CF0E94720A089580959091E603E8
:1019800098239093E603089580917C0490914304FA
:10199000981301C008958F5F8770FACFB0E0A0E080
:1019A000E4EDFCE00C94642D7C010091E4031091C3
:1019B000E5038091E2039091E303082B192BCFE01C
:1019C000D0E0CC24C394D12CBC2EC6010C2E02C076
:1019D000880F991F0A94E2F780239123892B49F4F9
:1019E000219790F7B12C8B2DCDB7DEB7E9E00C94A1
:1019F000802DB7018C2F0E947D0B0E949C0B0197BC
:101A000079F3F1CFCF93DF93EC010E94CE0CBE01AE
:101A10000E947D0B0E949C0BDF91CF91089598301E
:101A200078F5863068F5E82FF0E086E0989FE00DC5
:101A3000F11D11249E2F977083E0F695E7958A9506
:101A4000E1F7EE0FFF1FEE0FFF1FE056FD4F50E0D6
:101A500040E080E0219130E0092E02C036952795C4
:101A60000A94E2F721703327042E01C0220F0A9452
:101A7000EAF7822B4F5F5F4F4430510559F70895C5
:101A800080E00895983098F5863088F5E82FF0E0EA
:101A900086E0989FE00DF11D11248E2F877041E0A4
:101AA00001C0440F8A95EAF783E0F695E7958A9599
:101AB000E1F7EE0FFF1FEE0FFF1FE056FD4F30E086
:101AC00020E070E05191DF011197CB01022E02C09E
:101AD000969587950A94E2F78170819585278423EE
:101AE00085278C932F5F3F4F2430310559F7089598
:101AF0009093E5038093E403089521E030E002C071
:101B0000220F331F8A95E2F7209530958091E403E8
:101B10009091E503822393230E94780D089590917C
:101B2000BF02809589238093BF02282F277069F414
:101B3000891759F090911C0392FF07C086958695EE
:101B400086950E947D0D1092BF02089521E030E03D
:101B500002C0220F331F8A95E2F78091E40390912F
:101B6000E503822B932B0E94780D08959093E30355
:101B70008093E2030895FC0124812223C1F0808137
:101B800091810E94020D92959F70963091F058F4C9
:101B9000925F9F70923058F4803F19F030F4883E85
:101BA00030F481E008959A5FF4CF843FD1F380E070
:101BB0000895883EB0F3813FD1F7F3CFA6E0B0E0BF
:101BC000E4EEFDE00C946A2D49835A8349815A81E1
:101BD0009923A1F0222391F0CA010E94CE0C182F64
:101BE000682F89819A810E94420D69817A81812FB3
:101BF0000E947D0B2696E3E00C94862DCA010E947C
:101C00000F0D182FF2CFCF93DF93C0919206D09192
:101C100093068A30C1F420918904CE018C589440F7
:101C2000622F70E00E94472D281B822F66E00E94E1
:101C3000922DC82FC15018F4DF91CF91089580E202
:101C40000E94030EF7CF8D30E9F4CC58D440209198
:101C50008904622F70E0CE010E94472D281B822F3D
:101C60009E01280F311D2115324018F080E0D0E090
:101C7000C0E0C80FD11DC457DB4FD0939306C0936B
:101C80009206DACF96E0FE01ACE8B6E001900D9244
:101C90009A95E1F7803E08F458C086E0FE01119263
:101CA0008A95E9F7C0919206D091930646E050E0FC
:101CB000BE018CE896E00E94C12D9E012C58344054
:101CC000892B41F1C90145E0969587954A95E1F741
:101CD00041E050E0BA0102C0660F771F8A95E2F733
:101CE000CB0160918A0470918B04862B972BB901EC
:101CF0006B5F7F4FE5E076956795EA95E1F702C067
:101D0000440F551F6A95E2F7842B952B90938B0413
:101D100080938A042A5F3F4F40918904642F70E0CA
:101D2000C9010E94472D481B463010F4240F311D75
:101D3000211572E0370710F030E020E024573B4FC8
:101D4000309393062093920677CFF6E08F9FB001F1
:101D500011246453784F46E050E0CE010E94B82D24
:101D6000A1CFCF93DF93EC01FE018491811103C0D9
:101D7000DF91CF9108950E94030E2196F5CF209117
:101D8000E6038091C002282B8091E703882381F02D
:101D9000282B30E088E992E0FC014191CF0141110C
:101DA0003F5FF2E08E399F07B9F731111092E703D8
:101DB0002093960248E050E061EC72E086E992E000
:101DC0000E94C12D892BA9F088E0E6E9F2E0A1ECA0
:101DD000B2E001900D928A95E1F7E0912304F09131
:101DE0002404309731F00280F381E02D86E992E0FF
:101DF00009950895882321F00E94BD0C0E94BF0E12
:101E00000895882339F09091E603982B9093E60388
:101E10000E94BF0E08950F931F93CF93DF938B0102
:101E2000EA0190913904943061F58093E9008FEFD5
:101E30009091E800815095FD06C095ED9A95F1F7D7
:101E400000008111F5CF8091E80085FF1AC00E9443
:101E50002007811111C08091E80085FD06C08091A6
:101E6000E8008E778093E800F2CFF80181918F012E
:101E70008093F100219779F78091E8008E77809325
:101E8000E800DF91CF911F910F91089543E050E05A
:101E9000BC0182E00E940B0F089546E050E0BC01B7
:101EA00082E00E940B0F0895CF93DF93EC0148E08E
:101EB00050E0BC0181E00E940B0F88E0FE01AFE220
:101EC000B4E001900D928A95E1F7DF91CF910895EA
:101ED00081E08093E00080E28093D8001092C900F6
:101EE0008FE19EE40197F1F700C0000087E090EBDE
:101EF000DC018093940690939506A0939606B09388
:101F0000970688E19CE00FB6F894A895809360004E
:101F10000FBE90936000FFCF80913F03882341F173
:101F2000539A3BB1377F2BB128604FB7F89480E4C8
:101F300093E0FC015191CF0168E02BB9000000C093
:101F400057FF3BB9550F000000C000C000C03BB9AF
:101F500000C06A9591F7F3E0823E9F0751F74FBFAB
:101F60008FE594E00197F1F700C0000010923F0365
:101F70000895B0E0A0E0EFEBFFE00C94632D7C014E
:101F80005B016A0180910A0301E010E08A3010F4DD
:101F90000AE010E0C1E0D0E0B501C701F601099503
:101FA000811104C021960C171D072CF4CDB7DEB7A4
:101FB000EAE00C947F2DCC9F9001CD9F300D300D29
:101FC000112490E080E045E34A95F1F70000019686
:101FD00082179307C1F7E0CFB0E0A0E0E2EFFFE0A7
:101FE0000C94652D6C017B0164E670E088E70E942B
:101FF000A52A8C01E601EC0CFD1C17FD0BC0FE01AF
:10200000849164E670E00E94112B8C012196CE151C
:10201000DF0599F70E94872B81E00115110509F072
:1020200080E0CDB7DEB7E8E00C94812D80910E04FE
:1020300090911104911103C091E08927089588239C
:1020400069F062E070E080E593E00E94EC0F81119E
:1020500003C080910E04089510920E0480910E0426
:10206000EBCFCF93C0910E04809111048823D1F05F
:102070000E945F08605A75418F4F9F4F60930A041A
:1020800070930B0480930C0490930D04C11108C04D
:1020900062E070E08EE493E00E94EC0F811105C0D5
:1020A000C0910E048C2FCF91089581E080930E048F
:1020B000F7CFB0E0A0E0EFE5F0E10C94612D0E94D5
:1020C000720A6093370370933803809339039093B7
:1020D0003A0330918104D32FD37019F0D32FD695C2
:1020E000D695209164012130D9F0222359F0223075
:1020F00009F40AC1233009F411C1CDB7DEB7ECE011
:102100000C947D2D1092590160933B0370933C0316
:1021100080933D0390933E0381E080936401EDCF73
:102120009091580181E0D9130BC0832F83702091C7
:10213000570130E091E08217130609F490E0892FEF
:10214000817080935B018091860490915A01981769
:1021500039F080935A0140E060E080E00E94400A3C
:10216000DD2321F0D13061F090E02BC090915B0134
:10217000992339F140E060E080E00E94400AF4CF0A
:10218000809159010E942C0A982E092FC090820438
:10219000D0908304E0918404F0E0E25BFD4FD11025
:1021A00025C0F4901F2DCF2DC92CD12CC01608F4BA
:1021B00092C08091200491E0882309F49EC00B31E5
:1021C00098F68091590121E0280F2093590191112F
:1021D00098C092E09093640190915B01911191C03D
:1021E000DD2309F499C00E942C0A87CFED2CF12C35
:1021F000C4918C2EEC2FF0E026E0C29EC001112489
:102200002FEF30E0B9010E94472D8C2D90E0880F10
:10221000991FA5E5A69FA001A79F500D1124841B1F
:10222000950BC82ECC0CC80EC9018E199F098E9F24
:10223000A0018F9F500D9E9F500D1124152FDC9CE7
:10224000C0011124892F9927D901A81BB90BCD01F1
:102250008E9FD0018F9FB00D9E9FB00D112459010C
:10226000AC18B108AE9C6001AF9CD00CBE9CD00CE9
:102270001124CD2CDD242C193D092E9FC0012F9F48
:10228000900D3E9F900D1124F92E62307105A1F042
:1022900050F46115710509F487CF6130710581F043
:1022A000F52E1B2F81CF6430710569F080F0663008
:1022B000710509F479CFF4CFFC2EC52F192F74CFF7
:1022C000FC2ECB2F71CFF52E1C2FC92F6DCFC52F14
:1022D000182DFB2E69CFF601EB5AFD4F80819091AE
:1022E0005A01892331F0212F4F2D6C2FC6010E94F6
:1022F0008C09BFEFCB1ADB0A59CF063308F461CF44
:1023000033CFD11170CFF9CED0935801832F837082
:10231000809357010E948C0F83E0FFCE8091800450
:10232000882351F048E050E068E170E081E894E0F3
:102330000E94F52D10928004C0903B03D0903C0386
:10234000E0903D03F0903E0380911F048823C1F08C
:102350002FB7F894609128047091290480912A0481
:1023600090912B042FBF6C197D098E099F09603154
:1023700071058105910508F4C0CE10926401BDCEAF
:102380000E94720AF0CFE1E8F4E085E0808380915A
:10239000650190916601A091670181839283A38377
:1023A0008FE784838FEF858348E050E068E170E039
:1023B000CF010E94F52D10928004089590911C0386
:1023C00092FB222720F9281779F080FB92F990934D
:1023D0001C0360911B0370911C0384E090E00E9439
:1023E000232E82E00E948F0D0895A4E0B0E0EBEF71
:1023F000F1E10C946A2D4091FE025091FF02609130
:102400000003709101032FB7F894809128049091F4
:102410002904A0912A04B0912B042FBF841B950B93
:10242000A60BB70B11E084369105A105B10570F13B
:102430000E94720A6E5F7F4F8F4F9F4F69837A832E
:102440008B839C838091290190912A018B519D4F10
:102450004091280150E04530510510F044E050E033
:10246000BE016F5F7F4F0E94CE2D85E090E00E94FD
:10247000D12C182F882351F00E945F086093FE0230
:102480007093FF028093000390930103812F2496A1
:10249000E3E00C94862D4F925F926F927F928F9221
:1024A0009F92AF92BF92EF92FF920F931F93CF93A1
:1024B000DF937B01FB0140805180628073809FB776
:1024C000F8948090280490902904A0902A04B09059
:1024D0002B049FBF84189508A608B708F4E68F164A
:1024E0009104A104B10418F4C1E0442329F1C82FD8
:1024F000880FDD0BFE0183E0EE0FFF1F8A95E1F7E9
:10250000E050FF4F818192818B519D4F408150E07F
:102510000417150708F4A801B9010E94CE2DCE01B9
:102520000E94D12CC82F882339F00E945F08F70140
:1025300060837183828393838C2FDF91CF911F916E
:102540000F91FF90EF90BF90AF909F908F907F90F2
:102550006F905F904F900895A1E0B0E0E2EBF2E160
:102560000C94692D80910E0489832091FD0290E0E6
:1025700041E02817190609F440E001E010E09E014F
:102580002F5F3F4F66E073E087E00E944B12219679
:10259000E4E00C94852DA9E0B0E0E1EDF2E10C94CB
:1025A000692D88E0E1E8F4E0DE01119601900D92DA
:1025B0008A95E1F7198649E050E064EF72E0CE01B8
:1025C00001960E94C12D41E0892B09F440E009E009
:1025D00010E09E012F5F3F4F62E073E086E00E94B3
:1025E0004B122996E4E00C94852D0F931F93CF9303
:1025F000DF93EC0144E050E06AEE72E00E94C12DEE
:1026000041E0892B09F440E004E010E09E016DED0B
:1026100072E082E00E944B12DF91CF911F910F91E7
:1026200008954F925F927F928F929F92AF92BF9246
:10263000CF92DF92EF92FF920F931F93CF93DF938E
:102640000F92CDB7DEB7C62E4A015901482E880F2A
:102650005508C2010E94D12C782E882309F480C02D
:10266000C20133E0880F991F3A95E1F7FC01E05071
:10267000FF4F438150E04115510511F041E050E01A
:1026800080509F4FFC01648175816B517D4FCE015D
:1026900001960E94CE2DF4014081518162817381A7
:1026A0002FB7F8948091280490912904A0912A04CE
:1026B000B0912B042FBF841B950BA60BB70B843650
:1026C0009105A105B10540F4B701C8010E94300988
:1026D0009981891709F444C00C2C000CDD08C6014F
:1026E0000E94D12C782E811113C0712C872D0F9050
:1026F000DF91CF911F910F91FF90EF90DF90CF90DE
:10270000BF90AF909F908F907F905F904F90089573
:10271000C60123E0880F991F2A95E1F7FC01E050DC
:10272000FF4F438150E0E416F50608F4A7018050FE
:102730009F4FFC01648175816B517D4FC5010E94E3
:10274000CE2DB701C8010E94300999818913CDCFE0
:102750000E945F08F4016083718382839383C6CFF4
:10276000A701B801C5010E94CE2DC0CFA4E0B0E002
:10277000ECEBF3E10C94652D6B0184E0E82EF12C79
:1027800006EE12E09E012F5F3F4F49ED52E061E0FF
:1027900080E00E941113882361F049815A816B8186
:1027A0007C814093D5025093D6026093D7027093F8
:1027B000D8024091D5025091D6026091D702709113
:1027C000D802F60140835183628373832496E8E044
:1027D0000C94812DA8E0B0E0E0EFF3E10C946B2DB8
:1027E00066EE7EEF90E080E00E94232E60E082E0C3
:1027F00090E00E94052E81E090E09093E3038093A7
:10280000E20361E083E090E00E94052E60E074E165
:1028100084E090E00E94232E60E086E090E00E9439
:10282000052E6FEF87E090E00E94052E40E050E01B
:10283000BA0188E090E00E94172E60E084E290E008
:102840000E94052E60E087E190E00E94052E60E086
:102850008CE090E00E94052E60E08DE090E00E9408
:10286000052E19821A821B821C821D821E821F82E3
:10287000188648E050E068E170E0CE0101960E94C1
:10288000F52D40E050E0BA0180E290E00E94172E62
:1028900040E050E0BA018FE090E00E94172E40E047
:1028A00050E0BA0183E190E00E94172E2896E2E002
:1028B0000C94872D1F920F920FB60F9211242F9315
:1028C0003F934F935F936F937F938F939F93AF93B8
:1028D000BF93EF93FF938091E10082FF09C0809145
:1028E000E20082FF05C08091E1008B7F8093E100D0
:1028F0008091DA0080FF24C08091D80080FF20C042
:102900008091DA008E7F8093DA008091D90080FF79
:102910009DC080E189BD82E189BD09B400FEFDCF83
:1029200081E08093390480912C04811109C00E94B8
:1029300001070E94A2078091E20084608093E20078
:102940008091E10080FF17C08091E20080FF13C0FA
:102950008091E2008E7F8093E2008091E2008061AE
:102960008093E2008091D80080628093D80019BCE7
:1029700085E0809339048091E10084FF2BC0809131
:10298000E20084FF27C080E189BD82E189BD89B56D
:10299000982F917080FFFBCF8091D8008F7D80931E
:1029A000D8008091E1008F7E8093E1008091E20069
:1029B0008F7E8093E2008091E20081608093E2004C
:1029C00080913A04882309F447C084E08093390455
:1029D000809139048091E10083FF27C08091E2005B
:1029E00083FF23C08091E100877F8093E10082E034
:1029F0008093390410923A048091E1008E7F809395
:102A0000E1008091E2008E7F8093E2008091E200FD
:102A100080618093E20042E060E080E00E94700705
:102A20008091F00088608093F000FF91EF91BF915A
:102A3000AF919F918F917F916F915F914F913F9156
:102A40002F910F900FBE0F901F90189519BC1092E8
:102A5000390410922C0474CF8091E30087FD93E039
:102A600090933904B5CF78941F921FB61F9211240A
:102A70008F939F93AF93BF938091280490912904E3
:102A8000A0912A04B0912B040196A11DB11D809341
:102A9000280490932904A0932A04B0932B04BF9197
:102AA000AF919F918F911F901FBE1F9018959C0111
:102AB0004FB7F8948091280490912904A0912A049A
:102AC000B0912B044FBF821B930B08952FB7F8943E
:102AD0008091280490912904A0912A04B0912B049C
:102AE0002FBF08950E9466159C0190911B04809150
:102AF0001C04982B21F03093180420931704909114
:102B00001D0480911E04982B21F03093160420930D
:102B10001504E0912304F0912404309749F082E0F9
:102B2000809319040680F781E02D89E194E00995EE
:102B30000895CF931092E603C6E0E8E9F2E0DF01E2
:102B40008C2F1D928A95E9F790E080E00E94AA08F8
:102B500090E080E00E9485081092C0020E94BF0EA3
:102B6000E9E1F4E0DF011D92CA95E9F71092120441
:102B700010921304109214040E947215CF910895BC
:102B8000AAE2B0E0E6ECF5E10C946A2D8BE394E068
:102B90002091F100FC012193CF01F4E083349F07E1
:102BA000B9F780913C04833009F470C0B8F48130E7
:102BB00009F447C0823009F4B1C08091E80083FF76
:102BC0007EC280913B0490913C049A3008F077C219
:102BD000E92FF0E0E55DF14D0C94B22D8A3009F457
:102BE0008CC08B3009F46FC0893039F780913B0479
:102BF000813219F780913F04909140040297E8F6E2
:102C00008091E800877F8093E8008091E80082FF50
:102C100038C09091F3008091F200029731F48091D6
:102C2000F100813011F0863021F48091F100809321
:102C30002E048091E8008B778093E8000E94510772
:102C4000BCCF80913B04813A09F0B7CF8091E80076
:102C5000877F8093E80080913F0490914004892B06
:102C600061F468E08FE294E070E00E94FD078091DB
:102C7000E8008B778093E800A0CF60E090E080E0F0
:102C8000F3CF809139048111C0CF97CF80913B045D
:102C9000813A09F092CF80913F0490914004892BB2
:102CA00009F08BCF8091E800877F8093E8008091C6
:102CB000E80080FFFCCF809163018093F100809158
:102CC000E8008E77B9CF80913B04813209F075CF4F
:102CD00080913F0490914004892B09F06ECF809140
:102CE000E800877F8093E8000E94510780913D04AF
:102CF000809363010E94991560CF80913B048132DB
:102D000009F05BCF8091E800877F8093E8000E9404
:102D1000510780913E0480932D044FCF80913B0456
:102D2000813A09F04ACF8091E800877F8093E800DC
:102D30008091E80080FFFCCF80912D04BECF8038C9
:102D400099F0823809F0BBC180913F048F708730C1
:102D500008F0B5C18093E9008091EB0085FB8827DE
:102D600080F91092E90006C08091370490913804F0
:102D7000911182609091E800977F9093E800809392
:102D8000F1001092F1008091E8008E7794C18823C1
:102D900009F482C1823009F092C180913D04811111
:102DA00085C180913F048F702FEF280F263008F0E7
:102DB00086C18093E9002091EB0020FF77C193301A
:102DC00031F48091EB0080628093EB006FC19091B1
:102DD000EB0090619093EB0021E030E001C0220F06
:102DE0008A95EAF72093EA001092EA008091EB00BE
:102DF0008860EACF811163C110913D041F778091F3
:102E0000E3008078812B8093E3008091E800877F46
:102E10008093E8000E9451078091E80080FFFCCF7A
:102E20008091E30080688093E30082E0111183E0E9
:102E30008093390444C18058823008F040C18091A9
:102E40003D0490913E048C3D23E09207A1F583E080
:102E50008A838AE289834FB7F894DE01139620E0D3
:102E60003EE051E2E32FF0E050935700E49120FF61
:102E700003C0E295EF703F5FEF708E2F90E0EA3075
:102E8000C0F0C7968D939D932F5F243159F74FBFA4
:102E90008091E800877F8093E8006AE270E0CE01CD
:102EA00001960E94FD078091E8008B778093E800EF
:102EB00006C1C096E7CF40913F0450914004292FAE
:102EC00033272330310509F444C078F5213031052A
:102ED00009F46FC08BE390E0EBE3F7E022303105BB
:102EE00009F0EDC02091E800277F2093E8002091B1
:102EF0004104309142048217930708F49C0140E09A
:102F00002115310509F064C0411162C08091E800CB
:102F100082FDC9CF80913904882329F2853019F2C6
:102F20008091E80083FFF2CFBECF21323105A9F1B5
:102F30002232310509F0C3C04115510509F443C0DF
:102F40004130510509F0BBC08BE790E0ECE7F6E0BB
:102F5000C9CF992781309105C1F0009759F00297A8
:102F600009F0ADC0E8E8F7E0E4918E2F90E0E8E8E2
:102F7000F7E007C0E8ECF7E0E4918E2F90E0E8EC92
:102F8000F7E0009709F49BC0ADCFEEEAF7E0E491DB
:102F90008E2F90E0EEEAF7E0F4CF4115510571F085
:102FA0004130510509F08BC089E090E0E6E6F7E09A
:102FB00099CF82E190E0E6E7F7E094CF89E090E0F6
:102FC000EDE4F7E08FCF84E490E0E7EFF6E08ACF1E
:102FD00080913904882309F466CF853009F463CFE2
:102FE0008091E80083FD5FCF8091E80082FD8ECF65
:102FF0008091E80080FF84CF9091F3008091F200EF
:103000002115310519F08830910550F041E00897FD
:1030100009F040E08091E8008E778093E80070CF5F
:1030200044914093F1003196215031090196E8CF47
:10303000803809F044C08091E800877F8093E800E1
:1030400080913A048093F1009ECE811138C0109196
:103050003D041230A0F58091E800877F8093E8005E
:1030600010933A040E945107112311F084E005C027
:103070008091E30087FDFACF81E08093390442E03C
:1030800061EC81E00E94700742E261EC82E00E9404
:1030900070078091390413C080913D04813079F428
:1030A00081E0933009F080E0809338041092E900C9
:1030B0008091E800877F8093E8000E94510780910B
:1030C000E80083FF0AC08091E800877F8093E800D2
:1030D0008091EB0080628093EB00AA96E3E00C9471
:1030E000862D1F920F920FB60F9211242F933F93AC
:1030F0004F935F936F937F938F939F93AF93BF9300
:10310000CF93DF93EF93FF93D091E900DF7080912D
:10311000EC00C82FC17080FDC0E81092E9008091DA
:10312000F000877F8093F00078940E94C015109281
:10313000E9008091F00088608093F000CD2BCF7083
:10314000C093E900FF91EF91DF91CF91BF91AF91D3
:103150009F918F917F916F915F914F913F912F91AF
:103160000F900FBE0F901F9018950E9499152FEF8A
:1031700084E39CE0215080409040E1F700C00000D3
:1031800088E19CE00FB6F894A895809360000FBE8C
:1031900090936000FFCF40911B0490911D042091FB
:1031A0001E04662309F469C0942B922B20911C0401
:1031B000922B31F098E09093120491E090931304D5
:1031C0008D3C41F40E940209819580931C040E9469
:1031D000721508958E3C19F40E940209F6CF8F3CB7
:1031E00031F40E940209819580931B04F0CF803D49
:1031F00019F40E940209F8CF893D29F40E94E008E1
:1032000080931D04E4CF8A3D21F40E94E00881955B
:10321000F7CF8B3D31F40E94E008819580931E0426
:10322000D6CF8C3D19F40E94E008F8CF9FE2980FAA
:10323000983070F4815D990B21E030E001C0220FDD
:103240008A95EAF780911A04822B80931A04BFCFE3
:103250008D3D31F480911404816080931404B7CFC4
:103260008E3D21F4809114048260F7CF8F3D09F0E8
:10327000AECF809114048460F0CF8D3C59F48091DE
:103280001C0487FF0DC010921C0441110BC010924A
:10329000120408C08E3C81F480911C0418169CF323
:1032A000442381F080911D0490911E04892B09F024
:1032B0008ECF109213048BCF8F3C49F447FFF0CF91
:1032C00010921B0480911C048111ECCFE0CF803D53
:1032D00019F41416ACF3E4CF893D29F4191604F758
:1032E00010921D04DDCF8A3D19F497FFD9CFF8CF96
:1032F0008B3D29F427FFD4CF10921E04D1CF8C3DF3
:1033000019F41216CCF3CCCF9FE2980F983090F4BA
:10331000815D990B21E030E0B90102C0660F771F93
:103320008A95E2F7CB01809590911A0489238093C6
:103330001A04B6CF8D3D31F4809114048E7F8093B2
:103340001404AECF8E3D21F4809114048D7FF7CF0D
:103350008F3D09F0A5CF809114048B7FF0CF882397
:10336000D1F19CEF980F913A78F4E8E9F2E091916D
:10337000891303C0DF0111971C9292E0EE39F9071F
:10338000B1F70E94BF0E089590E2980F983050F464
:10339000877091E001C0990F8A95EAF7892F0E9402
:1033A000BD0CEFCF9BE5980F933028F490E080E0C0
:1033B0000E94AA08089598E5980F9B3128F490E0A0
:1033C00080E00E948508089593E3980F933118F4E4
:1033D00060E00E94CB180895CF93C82F8823B1F0E6
:1033E0008CEF8C0F813A00F5E8E9F2E08EE992E08B
:1033F000DF012D91C21761F08A179B07D1F76C2F5F
:1034000086E992E00E946B080E94BF0ECF9108955A
:103410002191C21303C0DF0111971C928E179F07E1
:10342000B9F70E94BF0EEBCF80E28C0F883068F4B2
:10343000C77021E030E001C0220FCA95EAF7809101
:10344000E603822B8093E603DFCFEBE5EC0FE3305E
:1034500040F4F0E0E259FE4F808190E00E94AA081B
:10346000D5CFE8E5EC0FEB3150F4F0E0EE0FFF1FA5
:10347000EF58FE4F808191810E948508C7CF83E37A
:103480008C0F833118F661E08C2F0E94CB18BECFD1
:103490001F93CF93DF93182FEB010E94EC19209715
:1034A00039F4812F0E94AF19DF91CF911F910895B8
:1034B0008FE99FE00197F1F700C000002197EFCF5F
:1034C0000F931F93CF93DF93C62FD42F022FFC01AE
:1034D00085818823A9F060937F040E9466159093EC
:1034E0007E0480937D04C77081E001C0880FCA9577
:1034F000EAF70E94010FDF91CF911F910F9108957C
:1035000080917F04681334C080917D0490917E0483
:103510000E945715883C910558F510E21D0FCD17F4
:10352000B9F080E28C0F883040F4C77081E001C0B0
:10353000880FCA95EAF70E94FA0E183048F481E025
:103540009D2F977001C0880F9A95EAF70E94010F8E
:1035500070E060E0802F0E94481A183060F6D77043
:1035600081E001C0880FDA95EAF70E94FA0EC3CF16
:10357000C77081E001C0880FCA95EAF7F6CF8111C4
:103580000CC070E0662331F060E089EA0E94481ABE
:1035900081E0089560E08AEAF9CF8130C9F770E0F0
:1035A000662319F060E08EE4F1CF60E08BE4EECFAB
:1035B000A1E0B0E0EEEDFAE10C94642DEE24E3948A
:1035C000F12C0FEE12E09E012F5F3F4F41EE52E0D3
:1035D00064E083E00E941113C82E882339F100E0D3
:1035E00080E01DC0D0901003D00E2D2D30E0A90139
:1035F000425D5C4F7A01E1E0F0E0EC0FFD1FE00F6F
:10360000F11D1081FA019081191BB12E1B149CF041
:10361000912F17FD90E0191B111118C00F5F9091A9
:103620000F030917F8F281110E94BA0C8C2D219614
:10363000E9E00C94802DBA94F70180818F5F80833C
:1036400060E08D2D0E94BF1A8C2DE0CF1F5FF70127
:1036500080818150808361E08D2D0E94BF1A8C2D66
:10366000DBCFB0E0A0E0E7E3FBE10C94632D8C013D
:10367000FC018481882341F121E0408151816281F4
:10368000738195810E94DE0DEC01FC01E851FC473D
:10369000E730F105A8F5EB5CF14D0C94B22D26E274
:1036A00041EE61EEC8010E94601A8091BF028770EE
:1036B00059F0F8018581882339F080911C0382FF3D
:1036C00003C082E00E948F0DCDB7DEB7EAE00C9414
:1036D0007F2D27E245EE65EEE5CF26E241EE60EE76
:1036E000E1CF27E245EE64EEDDCF26E241EE62EE69
:1036F000D9CF27E245EE66EED5CF28E241E0EBCF09
:10370000F8018581882309F4D1C310927F04CE018A
:103710009057839708F0B4C384E090E00E94EF2DA7
:1037200090931C0380931B03FE01E150F047E232AB
:10373000F10520F4E45CF14D0C94B22D80911B0353
:10374000816080931B0395C080911C0388608093E7
:103750001C038FC080911B038260F3CF80911B03F9
:103760008460EFCF80911B038860EBCF80911C03B6
:103770008160EDCF80911C038260E9CF80911B03B3
:103780008061DFCF80911B038062DBCF80911B03C0
:103790008064D7CF0E94991580911B038068D1CF98
:1037A00080911B038C60CDCF80911C038360CFCFB1
:1037B00080911B038E7FC5CF80911C03877FC7CF6D
:1037C00080911B038D7FBDCF80911B038B7FB9CF71
:1037D00080911B03877FB5CF80911C038E7FB7CF6D
:1037E00080911C038D7FB3CF80911B038F7EA9CF67
:1037F00080911B038F7DA5CF80911B038F7BA1CF71
:103800000E94991580911B038F779BCF80911B039A
:10381000837F97CF80911C038C7F99CF80911B036E
:1038200082FB992790F921E0922790FB82F990FB87
:1038300083F987CF80911C03982F909591708E7F8C
:10384000892B90FB81F983CF90911B03892F8F7B6C
:1038500096FF806476CF0E94991590911B03892F63
:1038600097FB87F980586DCF61E08EE090E00E9471
:10387000052E60911B0370911C0384E090E00E9470
:10388000232E0E94991511CF60E0EFCF90911B037A
:10389000892F8F7E94FF806154CF90911B03892FD5
:1038A0008E7F90FF81604DCF90911C03892F877F81
:1038B00093FF88604CCF80919E0281110FC089E2F6
:1038C000E8E9F2E02EE932E09191891303C0DF01CB
:1038D00011971C922E173F07B9F7E5C285E3F0CF89
:1038E0008091810491E08927809381041092640182
:1038F00080918004816080938004D7CE4EE15AE0AD
:1039000068E27AE00E948609D0CE48E25AE06EE191
:103910007AE0F8CF4AE05AE064E17AE0F3CF44E19C
:103920005AE06AE07AE0EECF40EF59E06DEF79E0DF
:10393000E9CF4DEF59E060EF79E0E4CF46ED59E093
:1039400063EE79E0DFCF43EE59E066ED79E0DACF60
:103950004AEB59E068EC79E0D5CF48EC59E06AEBE6
:1039600079E0D0CF81E00E94C0069FCE0E949915D9
:10397000FFEF24E33CE0F15020403040E1F700C08D
:1039800000000E94680F6FEF7FEF90E080E00E94E0
:10399000232E0E94B51880911C0382FB882780F992
:1039A00091E089270E94DE11F8018581C081D181D3
:1039B000882309F44DC0CE010E94CE0CF82E682F4A
:1039C000CE010E94420DBE018F2D0E947D0B0E94F0
:1039D0009C0BD82FC92FA82EF801C580B680B294B1
:1039E0003FE0B3228091BF02877009F1EC2CCC201C
:1039F000F9F0892F807F803469F080E28D0F883064
:103A0000B0F0892F807E803229F4F1E0FD1778F440
:103A1000BB2069F080911C0382FF09C082E00E94F4
:103A20008F0D8091BF028770EE24E3948111E12C09
:103A3000DC2ED2942FE0D2222BE02D1508F46DC09D
:103A4000ED2DF0E0E25AF14D0C94B22D80E0AACFBA
:103A5000CE010E940F0DF82EB6CF3C2F3F70F32EF3
:103A6000C07F19F0F29490EFF922CC20B9F0FF203A
:103A700069F080E28D0F883010F0A11009C08091AC
:103A8000E603F82AF092E6030E94BF0E8D2F43C092
:103A90008091C002F82AF092C002F6CF8D2F0E94CA
:103AA000AF19FF20D1F1D05ED83010F0A11004C0C2
:103AB0008F2D0E94BD0C06C0F0948091C002F822A8
:103AC000F092C0020E94BF0E28C08C2F8F70F82E7B
:103AD000C07FC03219F0F29480EFF822AA2059F08A
:103AE00091E0A91609F479C0CC2009F485C0BB2067
:103AF00009F447C0CBCF80911C0382FD3EC0CC208F
:103B0000B1F1FF2039F08091E603F82AF092E60344
:103B10000E94BF0E80E00E94EC192D2D2850330B1F
:103B20002430310510F40E94CF08EE20A9F08091D6
:103B3000BF0280FD11C0F801158286958695869595
:103B40000E94A60DC8010E94311B8091BF0286957C
:103B5000869586950E947D0D20E0F8014081518177
:103B600062817381848195810E94DE0DADCD80E0FC
:103B70000E94AF19FF2089F29BCFCC20A1F0B11099
:103B800004C08F2D0E94010FC8CFE1E0BE12C5CF47
:103B90008091E7039F2D9823F91609F4BECFF82AE8
:103BA000F092E703BACFB110B8CF8F2D0E94FA0E72
:103BB0009091E7038F2D892329F08F2D80958923FC
:103BC0008093E70380919F029F2D982309F4A5CF4E
:103BD000F094F822F0929F02A0CFCC2029F0F5E0DB
:103BE000FB1508F49ACFCDCF24E02B1508F495CF20
:103BF0008F2D0E94FA0E91CFBB20D1F339E3A3128F
:103C000009C08FEF97EEE3E081509040E040E1F78C
:103C100000C000008D2F0E94AF197FCF8C2F86959A
:103C20008695837069F0813009F077CF8D2F9C2FB6
:103C30009370C11002C080E090E00E9485086DCFB3
:103C40008D2F9C2F9370C11002C080E090E00E94E5
:103C5000AA0863CF6C2D8D2F0E94CB185ECF8C2FBE
:103C6000837009F03FC0C11058CF4D2F4295469543
:103C70004770440F440F2D2F2F7030E0042E02C0E8
:103C8000220F331F0A94E2F790E080E0D4FF09C0CE
:103C90008FE090E002C0880F991F4A95E2F7809567
:103CA0009095C695C695C370C23099F078F440914E
:103CB000E2035091E303C13039F0822B932B84232C
:103CC00095230E94B60D29CF242B352B822B932BC5
:103CD000F8CF822B932B2091E2033091E3038227CC
:103CE0009327EFCF8695CC2011F08C2F81708823FD
:103CF00009F413CF4D2F429546954770440F440F5A
:103D00002D2F2F7030E0042E02C0220F331F0A9493
:103D1000E2F790E080E0D4FF09C08FE090E002C0BD
:103D2000880F991F4A95E2F780959095C695C6959C
:103D3000C370C23099F078F44091E4035091E503E8
:103D4000C13039F0822B932B842395230E94780D68
:103D5000E4CE242B352B822B932BF8CF822B932B65
:103D60002091E4033091E50382279327EFCFCF70B2
:103D7000CC2029F08C2F0E94A60D8D2F03CF8D2FE4
:103D80000E94FA0E8C2F0E947D0DC7CE8D2FF2EF70
:103D9000AF1699F1FA1570F020EFA216D1F031EFBD
:103DA000A31691F0CC2009F45BC0B1106FCE8C2F1C
:103DB0008F7127C093EFA91639F1E4EFAE12F2CF5D
:103DC00080911C0382FD2EC08C2F8F71CC20D9F2E4
:103DD00018C0CC2069F0F4E0FB1508F49ECECF713A
:103DE00081E090E002C0880F991FCA95E2F7B8CF32
:103DF00025E02B1508F491CEF2CF8C2F8F71C110D6
:103E0000C2CF0E94A60D89CE90E080E0CC2009F4BC
:103E10009DCFCF7181E090E002C0880F991FCA95B5
:103E2000E2F794CFCC2089F0CF718C2F0E94A60DA1
:103E300080911C0382FF07C038E0C39FC00111249A
:103E400083608093BF028C2FDCCF81E00E948F0DB6
:103E500081E08B1508F061CE82E00E948F0D5DCE6F
:103E6000BB2059F0893309F0D5CE9FEFE7EEF3E0A0
:103E70009150E040F040E1F7CBCE8C2F8F7183CF93
:103E8000C631FCE7DF0729F58091E6038A7A91E0E5
:103E900009F490E090939E0269E2811165E386E95E
:103EA00092E00E946B080E94BF0EFFCBC6312CE748
:103EB000D20709F400CD8091E6038272FE01E05240
:103EC000F847E531F10508F06FCDE659F14D0C9456
:103ED000B22DC3303CE7D30709F455CD50F4C115DA
:103EE0009CE7D90709F442CDC130DC4709F451CD34
:103EF0005BCDCB35FCE7DF0709F4A8CDCC352CE74B
:103F0000D20709F448CDCA35DC4709F04DCD81E030
:103F100049CDCF93DF938091BE02807F09F04DC0E1
:103F20008091BD02882309F448C0E0917C0450913F
:103F30004304C091B902D091B8026091BA02709165
:103F4000BB0247E05E17C9F18E2F90E0E49FF001BD
:103F50001124EC5BFB4F2481222391F1489FF00157
:103F6000499FF00D1124DF01AC5BBB4F11962C91E2
:103F700011972C1325C02C912D1322C015962C912E
:103F8000159721111DC012962D913C91261B370BC0
:103F9000283C3105A8F48091BE028F708061809327
:103FA000BE02E65BFB4F80818F708061808388EB6F
:103FB00092E00E94311B0E94C40CDF91CF910895C2
:103FC000FC013196E770BECFA4E1B0E0EAEEFFE17C
:103FD0000C94612D8C0186E0F801DE011F960190A2
:103FE0000D928A95E1F7F8018481E58098EBA92E7E
:103FF00092E0B92E9091BC02911128C0882319F14A
:10400000EE20F1F0C8010E94BB0DF82E8823C1F00C
:1040100087E0F801D50101900D928A95E1F7809132
:10402000BC02813031F48091B8029091B9020E94B3
:10403000020D0E94891F8F2D6496ECE00C947D2D5B
:10404000C8010E94311BFF24F394F5CFD080C180BA
:1040500082809380F090BD022091BA023091BB0221
:10406000A401421B530BFF2009F4D9C0483C510561
:1040700008F092C08823F9F29091B9028091BE02B3
:10408000282F207F09F056C0C91214C09091B802A1
:10409000D91210C0E11048C08F7080618093BE02B9
:1040A00088EB92E00E94311B8091BE02F80186836A
:1040B000F12CC1CFE11038C06C2D8D2D0E94CF06A0
:1040C0006C2D8D2D0E94CF06E82E8111F1CFDF8659
:1040D000C88A8F8598890E94020D292F22952F70FA
:1040E000243058F49F70223088F0992399F0F80119
:1040F0009681907F79F4FE2C9ECF2A5F2F7022301C
:1041000068F0C8010E94311BEF2CF5CF992311F004
:10411000882389F3805E883070F3F3CF803F58F3B3
:10412000815F833070F7E7CF8091BE02816080931A
:10413000BE02BECFC91207C09091B802D91203C007
:10414000EE2009F48DC0C8010E94BB0D882309F43C
:1041500077CFEE2009F474CF8091BE02803288F0D0
:104160002091B8023091B902398728879B868A86C8
:104170009091BC029C871D868E87CE0108960E9476
:10418000311B87E0F801A8EBB2E001900D928A950F
:10419000E1F70E94891F57CF9091BE02292F207FFF
:1041A00051F488EB92E00E94311B87E0F5011192F7
:1041B0008A95E9F77DCF882309F43DCF8091B90234
:1041C0008C1110C08091B802D8120CC0E1100AC046
:1041D0009683C8010E94311B87E0F50111928A95F0
:1041E000E9F729CFC8010E94BB0D882309F428CF25
:1041F000EE2009F425CF8091BE02803210F220918A
:10420000B8023091B9023A8329839C828B829091C3
:10421000BC029D831E828F83CE010196B0CF483CA5
:104220005105D0F6882309F40ECFFE2CEE2009F4B8
:1042300007CF8091B9028C1120C08091B802D812AA
:104240001CC08091BE0280FD0FC0982F907F61F04E
:104250008683903F31F0982F907F905F8F70892BED
:104260008683C8010E94311B87E0F801A8EBB2E009
:1042700001900D928A95E1F7DECEC8010E94BB0D38
:1042800081117FCF8091BE0281608093BE02C80100
:104290000E94311BD0CEABE1B0E0E1E5F1E20C943D
:1042A000692D4E8B5F8B688F798F8A8F9B8F192F2B
:1042B00091111092C0021D8A86E0FE017696DE0101
:1042C0001F9601900D928A95E1F70A8D002341F027
:1042D00021E04F85588969897A89C8010E94DE0DDD
:1042E0000B8B1C8B87E0FE013F96DE011896019038
:1042F0000D928A95E1F7CE0108960E94E41F811184
:104300002AC087E0FE013896DE01119601900D92D9
:104310008A95E1F78C858823F1F02091430430E001
:10432000C90101968770992740917C0448171906A6
:10433000E9F097E0929FD001939FB00D1124AC5B00
:10434000BB4FFE01319601900D929A95E1F7809353
:1043500043040E94C40C17E080917C0490914304B4
:10436000891312C06B96E4E00C94852D0E94991578
:104370001092430410927C0487E0E8EBF2E0DF0146
:104380001D928A95E9F7E7CF819FC00111248C5BCC
:104390009B4F0E94E41F882329F380917C0490E0C6
:1043A00001968770992780937C04D6CF2F923F92F5
:1043B0005F926F927F928F929F92AF92BF92CF92B5
:1043C000DF92EF92FF920F931F93CF93DF93809131
:1043D0001104882309F44CC180910F0490911004BA
:1043E0000E945715C29708F424C10E946615909345
:1043F000100480930F04C09189048CE894E090939A
:1044000093068093920680911F04882309F447C184
:1044100060E870E082E593E00E94460924E0C29FD4
:10442000C0011124811562E0960714F090E080E04D
:1044300084579B4F909393068093920682ED93E06E
:104440000E94B10E88E194E00E94B10E8091E403D5
:104450009091E5032091E2033091E303822B932BAB
:10446000292F33272115310509F45DC0C90128E042
:10447000AC0174E0569547957A95E1F741155105E1
:1044800011F02C5FCA01AC0156954795569547959A
:104490004115510511F02E5FCA0196958795892B1C
:1044A00009F02F5F88EF93E0223051F088EE93E01F
:1044B000233031F088E094E0213011F088ED93E072
:1044C0000E94B10E88E194E00E94B10EC091E70312
:1044D0008091E603C82BDC2FD878C474DD2329F142
:1044E00081E494E00E94B10E8AE394E0CC2329F1A8
:1044F0008CE394E00E94B10E83E394E0C11102C00A
:1045000080E394E00E94B10EDD23E9F08DE294E0B7
:104510000E94B10E88E294E00E94B10EC1111DC04C
:104520008EE194E01CC020E0A3CF8EE394E00E94D3
:10453000B10EC11105C086E394E00E94B10EE0CF38
:1045400088E394E0D7CF8AE294E00E94B10ECC23B6
:1045500089F186E294E00E94B10E81E294E00E942B
:10456000B10EC091E7038091E603C82BDC2FD17117
:10457000C272DD2321F187E694E00E94B10E80E64D
:1045800094E0CC2321F182E694E00E94B10E89E50B
:1045900094E00E94B10EDD2311F183E594E00E94C6
:1045A000B10E8EE494E00E94B10EC11123C084E4E8
:1045B00094E022C084E294E00E94B10EB1CF84E680
:1045C00094E00E94B10EC11107C08CE594E00E94F6
:1045D000B10E86E594E0DDCF8EE594E0D6CF80E5A0
:1045E00094E00E94B10ECC2309F454C08CE494E012
:1045F0000E94B10E87E494E00E94B10E0E94CF08A1
:10460000C82F86E794E0C0FF02C089E794E00E94CB
:10461000B10E80E794E0C1FF02C083E794E00E94FE
:10462000B10E8AE694E0C2FF02C08DE694E00E94DB
:10463000B10E80918A0490918B04892BB9F58091F9
:104640000E048823A9F00E945F0800910A041091CB
:104650000B0420910C0430910D04601B710B820B34
:10466000930B6F3F7F4F8F4F9F4710F40E941610A0
:10467000DF91CF911F910F91FF90EF90DF90CF903E
:10468000BF90AF909F908F907F906F905F903F9082
:104690002F9008958AE494E00E94B10E88CF60E0E4
:1046A00072E08CE794E00E944609C3CF8091110428
:1046B000882329F2809109048111C1CF0E94311011
:1046C00020918A0430918B042115310509F4B7CF6C
:1046D00080E041E050E0082F10E01A01082E02C0EF
:1046E000220C331C0A94E2F7B10162237323672B77
:1046F00011F48F5FF0CF9091080490FF95C0880F60
:10470000880F880F80935E0110926101895F80930A
:104710005F0183E08093620124E630E047E050E0EF
:104720006CE571E088E70E943F2B892B09F087CF69
:10473000A80125E0440F551F2A95E1F78091080450
:1047400080FF84C0E8EEF3E080E2DF011D928A95ED
:10475000E9F7AFE8B2E00BE812E083E9C82E82E0A7
:10476000D82E97E0592E772473948D91E8012991E2
:104770008E01240F352F311D24573B4FE82FF0E0D9
:10478000E851FC4F90E080E0652C681A872C082ED9
:1047900001C0880C0A94EAF77901A12CE701B990CD
:1047A0007E01B820662D6A196770962E062E000CC1
:1047B000770BDB2D01C0DD0F9A94EAF771956195B7
:1047C00071096770772701C0B6946A95EAF7BD2A28
:1047D0006081962E9B289082A39468E0A612DECF7B
:1047E000019631968830910579F6CA16DB0609F0F4
:1047F000BCCF04E610E020E230E048EE53E060E495
:1048000088E70E94602B892B09F019CFE101C09540
:10481000D09580918A0490918B04C823D923D0939A
:104820008B04C0938A040BCF8295880F8076809387
:104830005E0198013695279536952795209361015D
:10484000815E80935F012093620166CF44575B4F86
:1048500004E610E020E230E0D2CFACE0B0E0E3E3E9
:10486000F4E20C94602D8E010F5F1F4F88E0D80199
:104870001D928A95E9F786E4C82E81E0D82EF12CA6
:10488000E12CAA24A394B12C26E4822E21E0922EBE
:10489000F60181916F018F3F09F442C0F894E82F2F
:1048A000E295EF70F0E021A18F70A50102C0440FE6
:1048B000551F8A95E2F7CA01922F982B91A392A1D6
:1048C0008095892382A3789400C0E0E4F1E0712C04
:1048D00031E021912F3F09F4B9C0A22FA295AF700A
:1048E000B0E090968C9190E02F7002C095958795DE
:1048F0002A95E2F780FDAAC0832F782A330F8E16FF
:104900009F0639F7F601319780818F3F11F00E94A1
:104910005B0A50EA5A95F1F7F801EE0DFF1D70821F
:104920008FEFE81AF80A94E0E916F10409F0B0CF25
:1049300048E050E0B80181E193E00E94C12D00976A
:1049400041F028E0F801A1E1B3E001900D922A9531
:10495000E1F700911A0310E0035E1C4F892B09F464
:1049600077C081E08093CD020E9466159093CC02BF
:104970008093CB02F12CE0901F04EE2009F4C2C01A
:1049800019861A861B861C8680910A038A3008F0D5
:1049900083C046EB53E1BE01675F7F4FC8010E94B1
:1049A000B90F882309F49DC045EF52E1BE01675F4E
:1049B0007F4FC8010E94B90F882309F492C048EDC7
:1049C0005AE1BE01675F7F4FC8010E94B90F88237B
:1049D00009F487C045EF51E1BE01675F7F4FC80111
:1049E0000E94B90F882309F47CC04BEC52E1BE0150
:1049F000675F7F4FC8010E94B90F882309F471C017
:104A00004CEA52E1BE01675F7F4FC8010E94B90FB7
:104A1000882309F466C010920A038091190390E07C
:104A200044E050E0BE01675F7F4F835E9C4F0E9471
:104A3000C12D21E02093D402892B09F044C0E12C40
:104A40008E2D8F292C96EDE00C947C2D80E055CF97
:104A5000F090CD02FF2009F48DCF8091CB02909190
:104A6000CC020E945715059708F484CF44E050E02B
:104A700061E173E0C8010E94C12D892B59F084E0E7
:104A8000E1E1F3E0D80101900D928A95E1F71092EF
:104A9000CD0271CFF12CFBCF8091CE029091CF024D
:104AA0000E945715843F914008F073CF8091D40243
:104AB000882329F2FE01399684E0DF011D928A9550
:104AC000E9F71092D402E0911903F0E0E35EFC4FA5
:104AD00089859A85AB85BC8580839183A283B383C6
:104AE000AFCF80910A038F3F31F08F5F80930A032D
:104AF0008A3008F492CF0E9466159093CF0280937B
:104B0000CE02D4CFC0901903D12CF601E35EFC4F46
:104B10006F0184E0F801A6EEB2E001900D928A9553
:104B2000E1F764E070E086EE92E00E943009809345
:104B3000E50284E0EAEEF2E0D60101900D928A955A
:104B4000E1F74091330350E06091320370E0625D21
:104B50007C4FCE0109960E94CE2D89858093EF026D
:104B600061E070E0CE0109960E9430098093EE0268
:104B70008090F0029090F102A090F202B090F302C7
:104B80008091D0029091D102A091D202B091D30233
:104B900088169906AA06BB06B1F08092D0029092C0
:104BA000D102A092D202B092D3020E945F08861A6C
:104BB000970AA80AB90A80920B0390920C03A0925C
:104BC0000D03B0920E0388E0E4EFF2E0A1E8B4E058
:104BD00001900D928A95E1F78091FD02882319F0EA
:104BE0000E9431102DCF0E9416102ACFA6E0B0E00F
:104BF000ECEFF5E20C94692D0E9466158C01809112
:104C0000C9029091CA028017910781F019821A8215
:104C10000E946615682F49815A81792F80E090E0C3
:104C20000E944B211093CA020093C9022696E4E029
:104C30000C94852D1F921FB61F9211248F939F9362
:104C4000AF93BF9380912704811113C080912804F2
:104C500090912904A0912A04B0912B044196A11DA2
:104C6000B11D8093280490932904A0932A04B09343
:104C70002B04BF91AF919F918F911F901FBE1F90EA
:104C80001895CDB7DEB72C970FB6F894DEBF0FBEE0
:104C9000CDBF85B7806885BF85B7806885BF84B77D
:104CA000877F84BF0FB6F894A895809160008861D3
:104CB00080936000109260000FBE80E890E00FB615
:104CC000F89480936100909361000FBE89E59AE0AB
:104CD00090939502809394020E9401070E94A2077C
:104CE0008091E20084608093E2007894809139049E
:104CF0008823A1F01091E9001F709091EC00892F9A
:104D0000817090FD80E8182B1092E9008091E800F6
:104D100083FD0E94C0151F701093E90082E084BDDE
:104D200093E095BD9AEF97BD80936E0010920B03B0
:104D300010920C0310920D0310920E038091D80074
:104D400080618093D8002AE12A95F1F700C0809114
:104D5000D900182F117080FD04C00E940107109225
:104D6000390410931F0484988C988FE891E0019780
:104D7000F1F700C000008FB182958170809320040C
:104D800080934A0180911F0481110E94E52B90912C
:104D90004A0181E0982790933203A82FA91BA09382
:104DA000100390914A018093330390914A018093BC
:104DB0000F0380914A01811106C086EF809356014E
:104DC00087EF8093550120915601E22FE295EF7015
:104DD000F0E061A12F7081E090E0AC0101C0440FD0
:104DE0002A95EAF7342F3095362331A322A1242BBC
:104DF00022A320915501E22FE295EF70F0E031A15E
:104E00002F7001C0880F2A95EAF7982F9095932369
:104E100091A392A1892B82A38FE891E00197F1F7EA
:104E200000C000001091330364E373E046E551E0F5
:104E300085E5E82E81E0F82EFB0128C0DA012D91EE
:104E4000AD01822F82958F7090E0DC0190968C915D
:104E500090E02F7002C0959587952A95E2F78170B2
:104E6000D7019D917D01292F22952F7030E0D90126
:104E700090962C9130E09F7002C0359527959A95B9
:104E8000E2F790E020FD92E0892B81938E2F861B24
:104E90008117A0F280914A01811120C081E38093A3
:104EA000460183E38093470182E38093480186E3D0
:104EB0008093490186E0E8E6F1E0DE011196019079
:104EC0000D928A95E1F7FE013196A0E4B1E0CE01A2
:104ED000079621912D938E179F07D9F780914A014C
:104EE00094E0811190E090931A0384E0891B8093F1
:104EF000190306E411E0F80181918F018F3F11F051
:104F00000E945B0AF1E00A341F07A9F700E411E0F0
:104F100056E4E52E51E0F52ED8018D918D018F3F9D
:104F200011F00E945B0AE016F106B1F788E0EDE1AE
:104F3000F3E0DF01282F1D922A95E9F7E1E1F3E084
:104F4000DF011D928A95E9F790E080E00E94EF2D45
:104F5000863E9E4F11F00E94EA1382E090E00E948C
:104F6000E72D8093250384E090E00E94EF2D90933D
:104F70001C0380931B030E942D24EFEFF6E721E032
:104F8000E150F0402040E1F700C000000E942D24D5
:104F900080912004E4E08111E0E0F0E0E35EFC4F6A
:104FA000808185FF08C06FEF7FEF90E080E00E9476
:104FB000232E0E94680F83E090E00E94E72D90E08E
:104FC0000E94B60D0E94B70990E080E00E94EF2D8C
:104FD000863E9E4F21F00E94EA130E94C31181E099
:104FE0008093800448E050E068E170E081E894E05C
:104FF0000E94D72D10928004809181048C7F11F43F
:105000000E94C31183E08093080480E280938904A6
:105010000E949F2A6BE070E083E492E00E94EC0F14
:105020008823E9F18091080465E070E081FDA2C069
:105030008EE392E00E94EC0F882389F16DE070E02E
:105040008CE292E00E94EC0F882349F10E945F08F5
:10505000605A75418F4F9F4F60930A0470930B0401
:1050600080930C0490930D04ECE8F4E080E092E06F
:10507000DF019C011D9221503040E1F7F09393062F
:10508000E09392068FEF9FEF90938B0480938A04B6
:1050900081E08093110480930E04109209048091A2
:1050A0001F04811102C00E94E82B8BE491E09093D1
:1050B00024048093230428E1C22ED12C35E2A32EB0
:1050C00033E0B32E44E0842E912C8091390400E12A
:1050D00012E1853009F489C00E942D2406E213E014
:1050E0009DE1E92E93E0F92E2EE233E0D701F8019D
:1050F00091918D912E173F0709F481C09817C1F344
:1051000020901F04712CD7016D907D01F801319022
:105110008F01361431F1512C442443943624832DCD
:105120008421B9F02220A9F05F8278860E9466155A
:105130009A878987F1E0FB8791E0862D842109F425
:1051400090E09C874F81588569857A858B850E9480
:105150004B215394440C26E05212E1CFF8013197D1
:105160006082739438E07312CECF0E94720A662474
:1051700063944AC089E392E05DCF80913904843022
:1051800031F10E9459100E9416101092270430E449
:105190000FB6F894A895C09260000FBE30936000DF
:1051A00083B7817F846083BF83B7816083BF789436
:1051B000889583B78E7F83BF0FB6F894A8958091AA
:1051C0006000886180936000109260000FBE809143
:1051D0003804882351F00E942D24EDE1F3E0819101
:1051E000811189C1AE16BF06D1F78091390485308F
:1051F00009F4C3CF0E9499150E94CF086DCF981370
:105200007FCF0E94F625612C0E945910E12C712C51
:1052100080913303E81650F0772009F484C00E948F
:10522000BA0C0E94D6210E94311081C00E2D10E0D0
:10523000F801EA5AFE4F8081E82FE295EF70F0E026
:10524000E0A1F0E08F7002C0F595E7958A95E2F74E
:10525000E170D801AB5ABE4F2C91A22FA295AF702E
:10526000B0E090968C9190E02F7002C09595879554
:105270002A95E2F780FD4FC080E08E2BD801AC5C10
:10528000BC4FEC919E2F9370891709F442C0EE0F2A
:10529000EE0FE82BEC93F0903203FE0CEF70F0E091
:1052A000E755FE4F005D1C4F8081D8019C91890F0E
:1052B0008C93512C84307CF0EF2DF0E0E25DFC4FBC
:1052C00080818F5F808350901F04552031F160E012
:1052D0008F2D0E94BF1AF80180818D3F7CF4EF2D45
:1052E000F0E0E25DFC4F80818150808350901F048C
:1052F0005520B1F061E08F2D0E94BF1AD8018C912A
:10530000082E000C990BB4010E949E2DF801808399
:105310007528E3947DCF82E0B0CF55245394DBCF42
:1053200055245394EBCF0E94D62161107CCF86E0A8
:10533000E9E1F4E0DE01119601900D928A95E1F722
:1053400070901A0400911B0410911C04E0901D043D
:10535000F0901E0410921B0410921C0410921D0465
:1053600010921E04812F802B09F445C080911704F0
:10537000909118040E9457159C0190911204992352
:1053800009F4D8C025313105B0F19F3F19F09F5F76
:1053900090931204002359F00E9402099FEF101607
:1053A0000CF491E0899F802D112480931B0411231C
:1053B00059F00E94020991E011160CF09FEF899FAD
:1053C000802D112480931C0480911B04882399F064
:1053D00060901C04662079F00E942209882309F459
:1053E00082C080931B04862D0E942209882309F421
:1053F0007CC080931C048F2D8E2909F443C08091BA
:105400001504909116040E9457159C019091130465
:10541000992309F48AC021353105A0F19F3F19F085
:105420009F5F90931304EE2059F00E94E0089FEFD5
:105430001E140CF491E0899F802D112480931D048B
:10544000FF2059F00E94E00891E01F140CF09FEF3C
:10545000899F802D112480931E0480911D04882330
:1054600089F0E0901E04EE2069F00E942209882352
:10547000F1F180931D048E2D0E9422098823C9F129
:1054800080931E0480911A04781216C080911B0428
:10549000882311F0801310C020911C04222311F0E6
:1054A00012130AC090911E04992311F09F1104C099
:1054B00030911D043323A9F10E94721586E0FE018C
:1054C0003196A9E1B4E001900D928A95E1F70E942E
:1054D000CF0890913603891709F4F7CD80933603EE
:1054E0000E945F08F2CD81E07CCF81E082CF81E035
:1054F000C0CF81E0C5CF09BD19BD09B400FEFDCF05
:105500008091D8008F7D8093D8008091E0008260E8
:105510008093E0008091E00081FDFCCF0E9499150E
:1055200064CE822B892B51F2C7CF2B30310508F086
:1055300077CFA8CF2B30310508F029CF5CCF109260
:10554000B9008CE08093B8000895B0E0A0E0EBEAE9
:10555000FAE20C94622DB82EEB010E9466156C01E4
:10556000EE24E394F12CC431D10560F025E0E22E65
:10557000F12CCF3FDC0731F0CE0164E170E00E94F6
:10558000472D7B0184EAA82E94E8992E1092BC0046
:10559000A092BC000E9466158C018091BC0087FF20
:1055A0000DC08091B900887F8830F9F08091B900F2
:1055B000887F8031D1F00FEF1FEF08C0C8010E9433
:1055C0005715E816F90648F70EEF1FEFCF3FDC0737
:1055D000E9F2C6010E945715C817D907B8F6C801E5
:1055E000CDB7DEB7EBE00C947E2DB092BB0090926D
:1055F000BC000E9466158C018091BC0087FF0AC028
:105600008091B900887F883111F08034A1F610E0D4
:1056100000E0E5CFC8010E945715E816F90660F7CB
:10562000D3CF0F931F93CF93DF93EB018093BB00F6
:1056300084E88093BC000E9466158C018091BC00B8
:1056400087FF11C02091B900287F81E090E02832C7
:1056500011F490E080E0919581959109DF91CF91CF
:105660001F910F910895CF3FDC0741F3C8010E94BD
:105670005715C817D90710F78EEF9FEFEFCFB0E09F
:10568000A0E0E5E4FBE20C94652D6B018A01790151
:10569000B9010E94A52AE6010C0D1D1DC017D107F6
:1056A00011F097FF08C024E92093BC00CDB7DEB706
:1056B000E8E00C94812DB70189910E94112BEECF67
:1056C000B0E0A0E0E6E6FBE20C94652DC62F6A018F
:1056D0007901B8010E94A52A97FD0CC0B8018C2F52
:1056E0000E94112BE601EC0CFD1CCE15DF0511F01C
:1056F00097FF08C024E92093BC00CDB7DEB7E8E0EF
:105700000C94812DB80189910E94112BEECF84E970
:105710008093BC0008958EE14A9B02C08150E1F75E
:105720004A9BFECF08955A9880E28A95F1F75A9ADB
:105730000895FC013BE03A95F1F798E020E080E025
:1057400031E040E14A95F1F7880F4A9B02C0816041
:10575000232742E04A95F1F7000040E14A95F1F72E
:10576000915079F790E19A95F1F799B132E03A9535
:10577000F1F7000040E14A95F1F792FB992790F983
:1057800092272081920F90830895A1E0B0E0EBEC86
:10579000FBE20C94672D19828C017C01E60EF11C52
:1057A0000E151F0541F481E09981911180E0219649
:1057B000E6E00C94832D0E948B2BCE0101960E9473
:1057C000992BF80181938F01EBCF529A5A9A089541
:1057D00052985A9AEA9AE9E6F0E080818F7C8083B9
:1057E00008956150770B91E001C0990F6A95EAF72F
:1057F00020E031E0911108C0222391F05A9A80E212
:105800008A95F1F75A980895492F482339F05A9A02
:10581000232740E24A95F1F79695ECCF5A98F9CFB5
:105820005A98EDCFFF920F931F93CF93DF93EC0124
:105830008C01060F111DC017D10729F4CDB7DEB7B3
:10584000E5E00C94842DF9900E94932B68E08F2D55
:105850000E94F12BF0CF1F920F920FB60F921124DE
:105860000F931F932F933F934F935F936F937F9368
:105870008F939F93AF93BF93EF93FF93CF93DF9358
:105880000F92CDB7DEB719820E948B2BCE01019605
:105890000E94992B082F069506950695282F22958C
:1058A0002570902F9570290F922F9370269526952D
:1058B000920F982797708981982B09F05CC0093066
:1058C00008F059C080E18A95F1F75A9A529A82E01D
:1058D0008A95F1F700C05A9888E0089F800111244A
:1058E000D801A050BF4F1696ED91FC9117973097B5
:1058F000A9F06091A7017091A80114962D913C9197
:105900001597260F371F11968D919C911297680F4E
:10591000791F13964C9113978C910995F801E050DB
:10592000FF4F6381662351F02091A7013091A801B8
:1059300084819581820F931F0E94122C0E94932BC9
:1059400080E18A95F1F75A9852985A9A80E18A959F
:10595000F1F7F801E050FF4F6081662351F020918C
:10596000A7013091A80181819281820F931F0E942B
:10597000C52B0E948B2B0F90DF91CF91FF91EF9160
:10598000BF91AF919F918F917F916F915F914F9157
:105990003F912F911F910F910F900FBE0F901F906D
:1059A00018950F931F93CF93DF93EC0109970CF099
:1059B0004CC0F894529A5A9885E08A95F1F7000005
:1059C0009C2F969595708C2F8570980F892F8370DA
:1059D0009695969523E0CC0FDD1F2A95E1F7980F59
:1059E0008E01092B0E94932B00C068E0802F0E943B
:1059F000F12B80E18A95F1F752985A9A4A9B1EC082
:105A000087E090E04A991CC0FE01E050FF4F63819F
:105A10006623F9F02091A7013091A8018481958136
:105A2000820F931F0E94C52B811113C0529A5A9A5C
:105A30007894DF91CF911F910F91089500C0DECF30
:105A4000019729F4529A5A9A789480E0F2CF00C0D4
:105A5000D9CF0E948B2B80E28A95F1F75A98529AFF
:105A600080E18A95F1F7C050DF4F6881662351F0DD
:105A70002091A7013091A80189819A81820F931FFB
:105A80000E94122C0E94932B789481E0D2CFAA1B03
:105A9000BB1B51E107C0AA1FBB1FA617B70710F019
:105AA000A61BB70B881F991F5A95A9F7809590954B
:105AB000BC01CD0108952F923F924F925F926F9259
:105AC0007F928F929F92AF92BF92CF92DF92EF928E
:105AD000FF920F931F93CF93DF93CDB7DEB7CA1B0F
